{
    "contractName": "Staking",
    "abi": [
        {
            "inputs": [
                {
                    "internalType": "address",
                    "name": "_stakingToken",
                    "type": "address"
                }
            ],
            "stateMutability": "nonpayable",
            "type": "constructor"
        },
        {
            "anonymous": false,
            "inputs": [
                {
                    "indexed": false,
                    "internalType": "address",
                    "name": "user",
                    "type": "address"
                },
                {
                    "indexed": false,
                    "internalType": "uint256",
                    "name": "amount",
                    "type": "uint256"
                }
            ],
            "name": "Stake",
            "type": "event"
        },
        {
            "anonymous": false,
            "inputs": [
                {
                    "indexed": false,
                    "internalType": "address",
                    "name": "user",
                    "type": "address"
                },
                {
                    "indexed": false,
                    "internalType": "uint256",
                    "name": "amount",
                    "type": "uint256"
                }
            ],
            "name": "Withdraw",
            "type": "event"
        },
        {
            "inputs": [
                {
                    "internalType": "address",
                    "name": "",
                    "type": "address"
                }
            ],
            "name": "balances",
            "outputs": [
                {
                    "internalType": "uint256",
                    "name": "",
                    "type": "uint256"
                }
            ],
            "stateMutability": "view",
            "type": "function"
        },
        {
            "inputs": [
                {
                    "internalType": "address",
                    "name": "",
                    "type": "address"
                }
            ],
            "name": "lockedBalances",
            "outputs": [
                {
                    "internalType": "uint256",
                    "name": "balance",
                    "type": "uint256"
                },
                {
                    "internalType": "uint256",
                    "name": "deadline",
                    "type": "uint256"
                }
            ],
            "stateMutability": "view",
            "type": "function"
        },
        {
            "inputs": [
                {
                    "internalType": "uint256",
                    "name": "_amount",
                    "type": "uint256"
                },
                {
                    "internalType": "bool",
                    "name": "_locked",
                    "type": "bool"
                }
            ],
            "name": "stake",
            "outputs": [],
            "stateMutability": "nonpayable",
            "type": "function"
        },
        {
            "inputs": [],
            "name": "stakingToken",
            "outputs": [
                {
                    "internalType": "contract IERC20",
                    "name": "",
                    "type": "address"
                }
            ],
            "stateMutability": "view",
            "type": "function"
        },
        {
            "inputs": [
                {
                    "internalType": "uint256",
                    "name": "_amount",
                    "type": "uint256"
                }
            ],
            "name": "withdraw",
            "outputs": [],
            "stateMutability": "nonpayable",
            "type": "function"
        },
        {
            "inputs": [],
            "name": "withdrawLocked",
            "outputs": [],
            "stateMutability": "nonpayable",
            "type": "function"
        }
    ],
    "bytecode": "60806040526224ea006002556064600355609660045534801561002157600080fd5b506040516107ef3803806107ef83398101604081905261004091610065565b600080546001600160a01b0319166001600160a01b0392909216919091179055610095565b60006020828403121561007757600080fd5b81516001600160a01b038116811461008e57600080fd5b9392505050565b61074b806100a46000396000f3fe608060405234801561001057600080fd5b50600436106100625760003560e01c80630483a7f61461006757806327e235e3146100a85780632e1a7d4d146100d657806372f702f3146100eb578063abe50f1914610116578063d135cc4b14610129575b600080fd5b61008e610075366004610629565b6006602052600090815260409020805460019091015482565b604080519283526020830191909152015b60405180910390f35b6100c86100b6366004610629565b60056020526000908152604090205481565b60405190815260200161009f565b6100e96100e4366004610659565b610131565b005b6000546100fe906001600160a01b031681565b6040516001600160a01b03909116815260200161009f565b6100e9610124366004610683565b6102c5565b6100e9610503565b336000908152600560205260409020548111156101955760405162461bcd60e51b815260206004820152601e60248201527f42616c616e6365206e65656420746f206265206d6f7265207468616e2030000060448201526064015b60405180910390fd5b80600160008282546101a791906106c9565b909155505033600090815260056020526040812080548392906101cb9084906106c9565b909155505060408051338152602081018390527f884edad9ce6fa2440d8a54cc123490eb96d2768479d49ff9c7366125a942436491015b60405180910390a16000805460405163a9059cbb60e01b8152336004820152602481018490526001600160a01b039091169063a9059cbb906044016020604051808303816000875af115801561025c573d6000803e3d6000fd5b505050506040513d601f19601f8201168201806040525081019061028091906106e0565b9050806102c15760405162461bcd60e51b815260206004820152600f60248201526e151c985b9cd9995c8819985a5b1959608a1b604482015260640161018c565b5050565b600082116103215760405162461bcd60e51b815260206004820152602360248201527f5374616b6520616d6f756e74206e65656420746f206265206d6f72652074686160448201526206e20360ec1b606482015260840161018c565b80156103cc5733600090815260066020526040902060010154156103875760405162461bcd60e51b815260206004820152601b60248201527f416e20616d6f756e7420697320616c7265616479206c6f636b65640000000000604482015260640161018c565b60006002544261039791906106fd565b6040805180820182528581526020808201938452336000908152600690915291909120905181559051600190910155506103f1565b33600090815260056020526040812080548492906103eb9084906106fd565b90915550505b816001600082825461040391906106fd565b909155505060408051338152602081018490527febedb8b3c678666e7f36970bc8f57abf6d8fa2e828c0da91ea5b75bf68ed101a910160405180910390a1600080546040516323b872dd60e01b8152336004820152306024820152604481018590526001600160a01b03909116906323b872dd906064016020604051808303816000875af1158015610499573d6000803e3d6000fd5b505050506040513d601f19601f820116820180604052508101906104bd91906106e0565b9050806104fe5760405162461bcd60e51b815260206004820152600f60248201526e151c985b9cd9995c8819985a5b1959608a1b604482015260640161018c565b505050565b336000908152600660205260409020546105525760405162461bcd60e51b815260206004820152601060248201526f42616c616e636520697320656d70747960801b604482015260640161018c565b3360009081526006602052604090206001015442116105b35760405162461bcd60e51b815260206004820152601e60248201527f5769746864726177616c206973206e6f742079657420706f737369626c650000604482015260640161018c565b3360009081526006602052604081205460018054919283926105d69084906106c9565b909155505033600081815260066020908152604080832083815560010192909255815192835282018390527f884edad9ce6fa2440d8a54cc123490eb96d2768479d49ff9c7366125a94243649101610202565b60006020828403121561063b57600080fd5b81356001600160a01b038116811461065257600080fd5b9392505050565b60006020828403121561066b57600080fd5b5035919050565b801515811461068057600080fd5b50565b6000806040838503121561069657600080fd5b8235915060208301356106a881610672565b809150509250929050565b634e487b7160e01b600052601160045260246000fd5b6000828210156106db576106db6106b3565b500390565b6000602082840312156106f257600080fd5b815161065281610672565b60008219821115610710576107106106b3565b50019056fea2646970667358221220eb8fe0f61d332416f26ea4a474cead889d376cad5aaf05cc2f3148124f3ede2d64736f6c634300080e0033",
    "sourcePath": "/home/vic/Web3/MeatUrCow/truffle/contracts/Staking.sol",
    "compiler": {
        "name": "solc",
        "version": "0.8.14+commit.80d49f37"
    },
    "functionHashes": {
        "balances(address)": "27e235e3",
        "lockedBalances(address)": "0483a7f6",
        "stake(uint256,bool)": "abe50f19",
        "stakingToken()": "72f702f3",
        "withdraw(uint256)": "2e1a7d4d",
        "withdrawLocked()": "d135cc4b"
    },
    "gasEstimates": {
        "creation": {
            "codeDepositCost": "373400",
            "executionCost": "infinite",
            "totalCost": "infinite"
        },
        "external": {
            "balances(address)": "2484",
            "lockedBalances(address)": "4590",
            "stake(uint256,bool)": "infinite",
            "stakingToken()": "2381",
            "withdraw(uint256)": "infinite",
            "withdrawLocked()": "infinite"
        }
    }
}